S01100005257532041524F42532E7372656380
S113000012C02CC02BC02AC029C028C027C026C0BB
S113001025C097C023C022C021C020C01FC01EC05D
S11300201DC01CC01BC011241FBECFE5D4E0DEBF21
S1130030CDBF10E0A0E6B0E0E0EEF1E002C0059034
S11300400D92A236B107D9F720E0A2E6B0E001C0D4
S11300501D92A836B207E1F743D0C0C0D1CF20919A
S11300606200309163002F5F3F4F30936300209311
S11300706200813019F08230D1F00895442359F0A0
S113008028B381E090E002C0880F991F6A95E2F7D7
S1130090822B88BB089528B381E090E002C0880FCA
S11300A0991F6A95E2F78095822388BB08954423BB
S11300B059F025B381E090E002C0880F991F6A953A
S11300C0E2F7822B85BB089525B381E090E002C05E
S11300D0880F991F6A95E2F78095822385BB08955E
S11300E0F89425D078948FE384BB0F2EF8EECF2EAE
S11300F0F3E0DF2EE12CF12CF02D6091640070917F
S113010065008091660090916700A701960144D034
S1130110672B682B692B89F7C09160004C2F61E035
S113012082E09DDF41E04C2740936000E6CF83E00E
S113013083BF81EC82BF89B7816089BF80E384BBC0
S113014008951F920F920FB60F9211248F939F93CD
S1130150AF93BF9395B380E3892785BB80916400F7
S113016090916500A0916600B09167000196A11D71
S1130170B11D8093640090936500A0936600B093D2
S1130180670081EC82BFBF91AF919F918F910F90D7
S11301900FBE0F901F901895A1E21A2EAA1BBB1B2D
S11301A0FD010DC0AA1FBB1FEE1FFF1FA217B3073F
S11301B0E407F50720F0A21BB30BE40BF50B661F55
S11301C0771F881F991F1A9469F760957095809519
S11301D090959B01AC01BD01CF010895F894FFCF28
S10501E0010018
S9030000FC
