S01100005257532041524F42532E7372656380
S113000012C021C020C01FC01EC01DC01CC01BC008
S11300101AC0ABC018C017C016C015C014C013C096
S113002012C011C010C011241FBECFE5D4E0DEBF42
S1130030CDBF20E0A0E6B0E001C01D92A636B20715
S1130040E1F76AD0B9C0DCCF209160003091610043
S11300502F5F3F4F30936100209360008230F1F0B6
S11300608330A9F1813009F04AC0442359F028B300
S113007081E090E002C0880F991F6A95E2F7822B15
S113008088BB089528B381E090E002C0880F991FCF
S11300906A95E2F78095822388BB0895442359F03A
S11300A025B381E090E002C0880F991F6A95E2F7BA
S11300B0822B85BB089525B381E090E002C0880FB0
S11300C0991F6A95E2F78095822385BB089544239E
S11300D059F022B381E090E002C0880F991F6A951D
S11300E0E2F7822B82BB089522B381E090E002C044
S11300F0880F991F6A95E2F78095822382BB089541
S113010081B3806C81BB40E067E083E09DDF40E029
S113011066E083E099DF0895CF93DF931F92CDB714
S1130120DEB719828C9AB89AF894EADF17D015E5ED
S113013040E060E081E088DF8FB181278FB940E043
S113014064E083E081DF779BFECF41E064E083E0FD
S11301507BDF41E060E081E077DFEACF87B38C6248
S113016087BB8DB182658DB908951F920F920FB62A
S11301700F9211248F939F93AF93BF93809162004A
S113018090916300A0916400B09165000196A11D57
S1130190B11D8093620090936300A0936400B093B8
S11301A0650081EC82BFBF91AF919F918F910F90B9
S10F01B00FBE0F901F901895F894FFCF1D
S9030000FC
