S01100005257532041524F42532E7372656380
S113000012C02CC02BC02AC029C028C027C026C0BB
S113001025C0BEC023C022C021C020C01FC01EC036
S11300201DC01CC01BC011241FBECFE5D4E0DEBF21
S1130030CDBF10E0A0E6B0E0ECEAF2E002C005902B
S11300400D92AA36B107D9F720E0AAE6B0E001C0C4
S11300501D92A037B207E1F743D026C1D1CF20913A
S11300606A0030916B002F5F3F4F30936B002093F9
S11300706A00813019F08230D1F00895442359F098
S113008028B381E090E002C0880F991F6A95E2F7D7
S1130090822B88BB089528B381E090E002C0880FCA
S11300A0991F6A95E2F78095822388BB08954423BB
S11300B059F025B381E090E002C0880F991F6A953A
S11300C0E2F7822B85BB089525B381E090E002C05E
S11300D0880F991F6A95E2F78095822385BB08955E
S11300E0F8944CD08CE090E07ED078948FEF84BB71
S11300F080E185BB87B3886187BB40E063E081E032
S1130100AEDF40E064E081E0AADF81E690E07CD0ED
S113011060916C0070916D0080916E0090916F0001
S113012086D080D00F2EF8EECF2EF3E0DF2EE12C18
S1130130F12CF02DC1E060916C0070916D00809104
S11301406E0090916F00A70196018CD0672B682BED
S1130150692B89F7809160008C278093600085B3B8
S1130160805D4ED05FD060916C0070916D00809185
S11301706E0090916F005BD055D0DDCF83E083BFDC
S113018081EC82BF89B7816089BF80E384BB089515
S11301901F920F920FB60F9211248F939F93AF93D8
S11301A0BF9395B380E3892785BB80916C009091C0
S11301B06D00A0916E00B0916F000196A11DB11D5C
S11301C080936C0090936D00A0936E00B0936F00C9
S11301D081EC82BFBF91AF919F918F910F900FBE21
S11301E00F901F9018951BB81AB810BC82E08BB9F9
S11301F010BC8CE089B988E08AB986E880BD08958E
S11302005D9BFECF8CB90895CF93DF93EC01888179
S1130210882329F02196F4DF89918111FCCFDF91A5
S1130220CF9108958DE0ECDF8AE0EADF08950F9323
S11302301F93CF93DF936A3071058105910550F0C8
S11302402AE030E040E050E00DD0062FCA01B901A9
S1130250EEDF602F80E3860FD3DFDF91CF911F9114
S11302600F910895A1E21A2EAA1BBB1BFD010DC01C
S1130270AA1FBB1FEE1FFF1FA217B307E407F50752
S113028020F0A21BB30BE40BF50B661F771F881F2E
S1130290991F1A9469F760957095809590959B01C4
S10F02A0AC01BD01CF010895F894FFCF1C
S10D02AC0141524455494E4F000031
S9030000FC
