S01100005257532041524F42532E7372656380
S113000012C02CC02BC02AC029C028C027C026C0BB
S113001025C090C023C022C021C020C01FC01EC064
S11300201DC01CC01BC011241FBECFE5D4E0DEBF21
S1130030CDBF10E0A0E6B0E0ECECF1E002C005902A
S11300400D92AA36B107D9F720E0AAE6B0E001C0C4
S11300501D92A037B207E1F743D0B6C0D1CF2091AB
S11300606A0030916B002F5F3F4F30936B002093F9
S11300706A00813019F08230D1F00895442359F098
S113008028B381E090E002C0880F991F6A95E2F7D7
S1130090822B88BB089528B381E090E002C0880FCA
S11300A0991F6A95E2F78095822388BB08954423BB
S11300B059F025B381E090E002C0880F991F6A953A
S11300C0E2F7822B85BB089525B381E090E002C05E
S11300D0880F991F6A95E2F78095822385BB08955E
S11300E08CE090E052D08FEF84BB87B3886187BBEC
S11300F040E063E081E0B3DF40E064E081E0AFDF53
S113010081E690E053D0D1E0C09160004C2F65E0CF
S113011082E0A5DF8C2F8D2780936000805D42D024
S11301202FEF84E39CE0215080409040E1F700C031
S11301300000EACF1F920F920FB60F9211248F93F3
S11301409F93AF93BF9395B380E3892785BB809139
S11301506C0090916D00A0916E00B0916F000196BB
S1130160A11DB11D80936C0090936D00A0936E004F
S1130170B0936F0081EC82BFBF91AF919F918F913B
S11301800F900FBE0F901F9018951BB81AB810BC93
S113019082E08BB910BC8CE089B988E08AB986E822
S11301A080BD08955D9BFECF8CB90895CF93DF93F6
S11301B0EC018881882329F02196F4DF899181114B
S10F01C0FCCFDF91CF910895F894FFCF9D
S10D01CC0141524455494E4F000012
S9030000FC
