S01100005257532041524F42532E7372656380
S113000012C02CC02BC02AC029C028C027C026C0BB
S113001025C0AEC023C022C021C020C01FC01EC046
S11300201DC01CC01BC011241FBECFE5D4E0DEBF21
S1130030CDBF10E0A0E6B0E0E8E8F2E002C0059031
S11300400D92AE36B107D9F720E0AEE6B0E001C0BC
S11300501D92A437B207E1F743D014C1D1CF209148
S11300606E0030916F002F5F3F4F30936F002093ED
S11300706E00813019F08230D1F00895442359F094
S113008028B381E090E002C0880F991F6A95E2F7D7
S1130090822B88BB089528B381E090E002C0880FCA
S11300A0991F6A95E2F78095822388BB08954423BB
S11300B059F025B381E090E002C0880F991F6A953A
S11300C0E2F7822B85BB089525B381E090E002C05E
S11300D0880F991F6A95E2F78095822385BB08955E
S11300E0F8943ED08CE090E06AD078948FEF84BB93
S11300F087B3886187BB40E063E081E0B0DF40E024
S113010064E081E0ACDF60917000709171008091D7
S113011072009091730077D071D090D0C82F2FEFD8
S113012084E39CE0215080409040E1F700C000004F
S1130130C63429F441E065E082E091DFEECFC734B4
S113014029F440E065E082E08ADFE7CF80E690E0D2
S113015047D08BE690E044D08C2F3ED04FD0DDCFFB
S113016083E083BF81EC82BF89B7816089BF089532
S11301701F920F920FB60F9211248F939F93AF93F8
S1130180BF938091700090917100A0917200B09122
S113019073000196A11DB11D8093700090937100AE
S11301A0A0937200B093730081EC82BFBF91AF91B2
S11301B09F918F910F900FBE0F901F9018951BB8B1
S11301C01AB810BC82E08BB910BC8CE089B988E104
S11301D08AB986E880BD08955D9BFECF8CB90895E9
S11301E0CF93DF93EC018881882329F02196F4DFF3
S11301F089918111FCCFDF91CF9108958DE0ECDFDF
S11302008AE0EADF08950F931F93CF93DF936A3058
S113021071058105910550F02AE030E040E050E09E
S11302200FD0062FCA01B901EEDF602F80E3860FDD
S1130230D3DFDF91CF911F910F9108958CB1089571
S1130240A1E21A2EAA1BBB1BFD010DC0AA1FBB1FD6
S1130250EE1FFF1FA217B307E407F50720F0A21B48
S1130260B30BE40BF50B661F771F881F991F1A94B5
S113027069F760957095809590959B01AC01BD01DF
S10B0280CF010895F894FFCFAB
S1110288486962617320676F6D62003A20005E
S9030000FC
