:1000000012C02CC02BC02AC029C028C027C026C0BF
:1000100025C024C023C022C021C020C01FC01EC0D4
:100020001DC01CC01BC011241FBECFE5D4E0DEBF25
:10003000CDBF10E0A0E6B0E0E4E2F1E002C0059040
:100040000D92A236B107D9F720E0A2E6B0E001C0D8
:100050001D92A536B207E1F743D062C0D1CF2091FF
:100060006200309163002F5F3F4F30936300209315
:100070006200813019F08230D1F00895442359F0A4
:1000800028B381E090E002C0880F991F6A95E2F7DB
:10009000822B88BB089528B381E090E002C0880FCE
:1000A000991F6A95E2F78095822388BB08954423BF
:1000B00059F025B381E090E002C0880F991F6A953E
:1000C000E2F7822B85BB089525B381E090E002C062
:1000D000880F991F6A95E2F78095822385BB089562
:1000E0008FE384BBC1E01092640060E04091600047
:1000F00082E0B5DF2FE38DE093E021508040904017
:10010000E1F700C00000609164006F5F60936400DD
:10011000663060F3809160008C2780936000E3CFAD
:04012000F894FFCF81
:020124000100D8
:00000001FF
