S01100005257532041524F42532E7372656380
S113000012C02CC02BC02AC029C028C027C026C0BB
S113001025C0E5C023C022C021C020C01FC01EC00F
S11300201DC01CC01BC011241FBECFE5D4E0DEBF21
S1130030CDBF10E0A0E6B0E0E2EFF2E002C0059030
S11300400D92A837B107D9F720E0A8E7B0E001C0C6
S11300501D92AE37B207E1F76AD049C1D1CF2091E2
S11300607800309179002F5F3F4F309379002093CF
S113007078008230F1F08330A9F1813009F04AC070
S1130080442359F028B381E090E002C0880F991FFF
S11300906A95E2F7822B88BB089528B381E090E04B
S11300A002C0880F991F6A95E2F78095822388BB66
S11300B00895442359F025B381E090E002C0880FED
S11300C0991F6A95E2F7822B85BB089525B381E0D9
S11300D090E002C0880F991F6A95E2F78095822309
S11300E085BB0895442359F022B381E090E002C017
S11300F0880F991F6A95E2F7822B82BB089522B379
S113010081E090E002C0880F991F6A95E2F780951C
S1130110822382BB089581B3806C81BB40E067E099
S113012083E09DDF40E066E083E099DF0895CF93AC
S1130130DF931F92CDB7DEB719828C9AF89447D01B
S11301408CE090E073D07894E6DF60917A0070914F
S11301507B0080917C0090917D008CD086D00F2E06
S1130160F8EECF2EF3E0DF2EE12CF12CF02D11E090
S113017060917A0070917B0080917C0090917D0069
S1130180A701960192D0672B682B692B89F7809180
S11301906000812780936000882329F0412F64E068
S11301A083E05DDF04C040E064E083E058DF8090DA
S11301B07A0090907B00A0907C00B0907D0081E656
S11301C090E045D0C501B40155D04FD0D1CF83E0E4
S11301D083BF81EC82BF89B7816089BF08951F9274
S11301E00F920FB60F9211248F939F93AF93BF93E7
S11301F080917A0090917B00A0917C00B0917D0069
S11302000196A11DB11D80937A0090937B00A09369
S11302107C00B0937D0081EC82BFBF91AF919F9130
S11302208F910F900FBE0F901F9018951BB81AB89E
S113023010BC82E08BB910BC8CE089B988E18AB922
S113024086E880BD08955D9BFECF8CB90895CF9359
S1130250DF93EC018881882329F02196F4DF8991CA
S11302608111FCCFDF91CF9108958DE0ECDF8AE01E
S1130270EADF08950F931F93CF93DF936A307105DC
S11302808105910550F02AE030E040E050E00DD0C7
S1130290062FCA01B901EEDF602F80E3860FD3DF9A
S11302A0DF91CF911F910F910895A1E21A2EAA1BFD
S11302B0BB1BFD010DC0AA1FBB1FEE1FFF1FA21712
S11302C0B307E407F50720F0A21BB30BE40BF50B0F
S11302D0661F771F881F991F1A9469F76095709598
S11302E0809590959B01AC01BD01CF010895F894D0
S10502F0FFCF3A
S11302F20154696D65722063757272656E7420763D
S10B0302616C75653A200000EE
S9030000FC
