S01100005257532041524F42532E7372656380
S113000012C021C020C01FC01EC01DC01CC01BC008
S11300101AC0A0C018C017C016C015C014C013C0A1
S113002012C011C010C011241FBECFE5D4E0DEBF42
S1130030CDBF20E0A0E6B0E001C01D92A636B20715
S1130040E1F743D005C1DCCF20916000309161001D
S11300502F5F3F4F3093610020936000813019F08F
S11300608230D1F00895442359F028B381E090E020
S113007002C0880F991F6A95E2F7822B88BB089506
S113008028B381E090E002C0880F991F6A95E2F7D7
S11300908095822388BB0895442359F025B381E0D9
S11300A090E002C0880F991F6A95E2F7822B85BB06
S11300B0089525B381E090E002C0880F991F6A95E6
S11300C0E2F78095822385BB0895CF93DF9300D018
S11300D0CDB7DEB71A82F89435D08CE090E061D0C9
S11300E078948FEF84BB87B3886187BB40E063E07B
S11300F081E0AADF40E064E081E0A6DF6091620075
S113010070916300809164009091650060D05AD032
S113011079D089839A8189819817D1F389814ED0C6
S11301208981863429F441E065E082E08DDF07C0EF
S11301308981873421F440E065E082E085DF8981AC
S11301408A83E6CF83E083BF81EC82BF89B7816075
S113015089BF08951F920F920FB60F9211248F93A7
S11301609F93AF93BF938091620090916300A0919D
S11301706400B09165000196A11DB11D80936200D9
S113018090936300A0936400B093650081EC82BFF8
S1130190BF91AF919F918F910F900FBE0F901F90C1
S11301A018951BB81AB810BC82E08BB910BC8CE04F
S11301B089B988E18AB986E880BD08955D9BFECF40
S11301C08CB908958DE0FADF8AE0F8DF08950F9383
S11301D01F93CF93DF936A3071058105910550F029
S11301E02AE030E040E050E011D0062FCA01B90106
S11301F0EEDF602F80E3860FE1DFDF91CF911F9167
S11302000F9108955F9BFECF8CB10895A1E21A2E41
S1130210AA1BBB1BFD010DC0AA1FBB1FEE1FFF1FA6
S1130220A217B307E407F50720F0A21BB30BE40BF6
S1130230F50B661F771F881F991F1A9469F760953D
S11302407095809590959B01AC01BD01CF010895F7
S1070250F894FFCF4C
S9030000FC
